:100000002DC1000049C1000047C1000045C10000EA
:1000100043C1000041C100003FC100003DC10000DC
:100020003BC1000039C1000037C1000035C10000EC
:1000300033C1000031C100002FC100002DC10000FC
:100040002BC1000029C10000EBC7000025C1000042
:1000500023C1000021C100001FC100001DC100001C
:100060001BC1000019C1000017C1000015C100002C
:1000700013C1000011C100000C9481080DC10000E3
:100080000BC1000009C1000007C10000084AD73BAE
:100090003BCE016E84BCBFFDC12F3D6C74319ABD57
:1000A00056833DDA3D00C77F11BED9E4BB4C3E917B
:1000B0006BAAAABE000000803F07634236B79BD8F8
:1000C000A71A39685618AEBAAB558C1D3CB7CC5739
:1000D00063BD6DEDFD753EF6177231BF0000008007
:1000E0003F05A84CCDB2D44EB93836A9020C50B950
:1000F000918688083CA6AAAA2ABE000000803F0874
:10010000000000BE922449123EABAAAA2ABECDCC62
:10011000CC4C3E00000080BEABAAAAAA3E00000064
:1001200000BF000000803F0000000000084178D3BD
:10013000BB4387D1133D190E3CC3BD4282AD2B3E5C
:1001400068EC8276BED98FE1A93E4C80EFFFBE01FC
:10015000C4FF7F3F0000000000006E616E00696E0A
:10016000660000407A10F35A00A0724E1809001081
:10017000A5D4E80000E87648170000E40B5402001C
:1001800000CA9A3B000000E1F50500008096980047
:10019000000040420F000000A08601000000102770
:1001A00000000000E8030000000064000000000000
:1001B0000A00000000000100000000002C76D88832
:1001C000DC674F0823DFC1DFAE59E1B1B796E5E345
:1001D000E453C63AE651997696E8E6C28426EB895E
:1001E0008C9B62ED407C6FFCEFBC9C9F40F2BAA5FB
:1001F0006FA5F490055A2AF75C936B6CF9676DC193
:100200001BFCE0E40D47FEF520E6B500D0ED902E96
:100210000300943577050080841E080000204E0AF4
:10022000000000C80C333333330F986E1283114132
:10023000EF8D2114893BE65516CFFEE6DB18D184FD
:100240004B381BF77C1D901DA4BBE4242032847224
:100250005E228100C9F124ECA1E53D2711241FBED7
:10026000CFEFD0E1DEBFCDBF11E0A0E0B1E0E6E628
:10027000F5E200E00BBF02C007900D92A038B10775
:10028000D9F721E0A0E8B1E001C01D92A53FB20777
:10029000E1F7B2D50C94B112B3CEAC0120E030E05E
:1002A00081E090E00AC0FC01E49FC001E59F900D51
:1002B000F49F900D11242F5F3F4F261737079CF3B3
:1002C00008950F931F93CF93DF93FC012481203275
:1002D00009F08FC02181243308F08BC0268124339C
:1002E00008F087C0EC0101E010E022C063E070E09C
:1002F000601B710B8AE090E0D0DFFE01E00FF11F80
:10030000208130E020533109AC01429FC001439F5E
:10031000900D529F900D1124209183013091840102
:10032000820F931F90938401809383010F5F1F4F6F
:1003300004301105DCF288818D3261F480918301F3
:100340009091840191958195910990938101809379
:10035000800108C080918301909184019093810174
:1003600080938001109284011092830106E010E0D6
:1003700022C068E070E0601B710B8AE090E08DDFC6
:10038000FE01E00FF11F208130E020533109FC0114
:10039000E29FC001E39F900DF29F900D11242091E8
:1003A000830130918401820F931F90938401809385
:1003B00083010F5F1F4F09301105DCF28D818D32F3
:1003C00061F48091830190918401919581959109C7
:1003D00090938A018093890108C080918301909154
:1003E000840190938A018093890110928401109274
:1003F0008301DF91CF911F910F9108950F931F9368
:10040000CF93DF9360E070E019C09C0121703078D9
:10041000332334F4215031092E6F3F6F2F5F3F4F4C
:10042000FB01E357FE4F20839C01992314F42F5FB7
:100430003F4FC901959587956F5F7F4F009729F7CB
:10044000CB0107C0FC01E357FE4F10826F5F7F4F67
:10045000019680319105B4F3EB01299710E00CC0AF
:10046000FE01E357FE4F0081BE0182E090E015DF00
:10047000089F100D11242197DD2394F7812FDF9120
:10048000CF911F910F910895FF920F931F93CF93D8
:10049000DF931092820110928801C0E0D0E018C072
:1004A0009C0121703078332334F4215031092E6FB0
:1004B0003F6F2F5F3F4FFE01E357FE4F20839C01AC
:1004C000992314F42F5F3F4FC90195958795219685
:1004D000009731F7CE0106C0FC01E357FE4F1082B2
:1004E0002196019680319105BCF38E0101501109CE
:1004F00013C0F801E357FE4FF080B801685071094E
:1005000082E090E0CADE90918801F89E900D11245F
:100510009093880101501109CE0108970817190717
:1005200044F7299710C0FE01E357FE4F1081BE012A
:1005300082E090E0B2DE90918201189F900D11242C
:10054000909382012197DD2374F7DF91CF911F9162
:100550000F91FF9008958BB38D7F8BBB8BB382601F
:100560008BBB08958BB38D7F8BBB08954F925F92A9
:100570006F927F928F929F92AF92BF92DF92EF9293
:10058000FF920F931F93CF93DF9300D000D01F9261
:10059000CDB7DEB78D83D62ECA01B901E982FA82C2
:1005A0000B831C832BED3FE049E450E4E8D620E0C8
:1005B00030E044E353E40E943A0B28E539E344EB8E
:1005C0005DE3DDD626E636E646E450E40E943A0BCB
:1005D00020E030E040E05FE308D639D72B013C0152
:1005E000072E000C880B990B65D74B015C01C201EB
:1005F0004BDF8091880180938601809182018093F6
:1006000087012BED3FE049E450E469817A818B81D9
:100610009C81B5D620E030E044E353E40E943A0BDD
:1006200028E539E344EB5DE3AAD626E636E646E460
:1006300050E40E943A0B20E030E040E05FE3D5D583
:1006400006D7072E000C880B990B34D7A50194010F
:10065000CBD5FDD6CB0118DF8091880180938B012B
:100660008091820180938C011092850174DFF8944F
:100670008FEF90E0A5D58FEF90E0A2D58EEF90E0C0
:100680009FD58EE090E09CD583E890E099D58EE1EF
:1006900090E096D584E090E093D59D81892F90E0FD
:1006A0009A8389838DD58091870190E089D5809147
:1006B000860190E085D58EE090E082D581E090E0E3
:1006C0007FD50D2D10E0C8017BD580918C0190E085
:1006D00077D580918B0190E073D58EE090E070D556
:1006E00081E090E06DD589819A818F549E4F209151
:1006F0008701820F911D20918601820F911D0F9617
:10070000800F911F20918C01820F911D20918B01F0
:10071000820F911D0F9672DE80958093850190E087
:100720004FD580919B0086FFFCCF8FE99FE001971A
:10073000F1F700C0000016DF78940F900F900F9033
:100740000F900F90DF91CF911F910F91FF90EF903D
:10075000DF90BF90AF909F908F907F906F905F9051
:100760004F900895CF93DF93C82F10928501F3DE49
:10077000F8948FEF90E024D58FEF90E021D5D0E072
:10078000CE011ED584E090E01BD583E090E018D523
:1007900089E490E015D584E190E012D5CE018C5922
:1007A0009F4F2CDE80958093850190E009D5809144
:1007B0009B0086FFFCCF8FE99FE00197F1F700C017
:1007C0000000D0DE7894DF91CF9108954F925F9230
:1007D0006F927F928F929F92AF92BF92CF92DF9251
:1007E000EF92FF920F931F93CF93DF9300D000D02F
:1007F00000D0CDB7DEB77A836983BC01990F880B2F
:10080000990B58D62B013C0120E030E040E050E449
:1008100094D74B015C0129813A81B901330F880BD0
:10082000990B48D66B017C0120E030E040E050E4B9
:1008300084D79B01AC01C501B401D7D420E030E0DE
:1008400048EC52E4D1D420E030E048EC52E4CCD47F
:1008500020E030E048E453E492D54B015C01609322
:10086000A5017093A6018093A7019093A80120E0B1
:1008700030E040E85FEB7FD588234CF020E030E0AB
:1008800040E85FE3C501B401EAD618166CF486E0CF
:10089000E0E0F1E0A1EBB1E001900D928A95E1F783
:1008A00081EB91E00FD40DC220E030E0A901C50139
:1008B000B40161D588230CF0C4C020E030E040E0F2
:1008C00050E4C501B40139D769837A838B839C8353
:1008D00029813A814B815C8160E070E080E89FE390
:1008E00083D481D769837A838B839C83A501940108
:1008F00046D519D52BED3FE049E450E476D4062FD8
:10090000172F8D839E832EEE3CE747E250E433D5CC
:100910008823DCF52EEE3CE747E250ECED81BE810A
:10092000602F712F8E2F9B2F9AD6181674F53D814C
:100930002E81802F912FA32FB22F8093A10190930E
:10094000A201A093A301B093A40180939D01909371
:100950009E01A0939F01B093A001BF938D818F93BF
:100960001F930F9386E091E09F938F9381EB91E02B
:100970009F938F930E94251281EB91E0A3D30FB632
:10098000F894DEBF0FBECDBF9CC169817A818B8197
:100990009C819058A5019401F2D4C5D42BED3FE081
:1009A00049E450E421D4862E972EB82EA92E2EEE9F
:1009B0003CE747E250E4DFD48823B4F52EEE3CE771
:1009C00047E250EC682D792D8B2D9A2D48D61816BC
:1009D0005CF5882D992DAB2DBA2D8093A1019093B4
:1009E000A201A093A301B093A40180939D019093D1
:1009F0009E01A0939F01B093A001AF92BF929F92DE
:100A00008F9286E091E09F938F9381EB91E09F938B
:100A10008F930E94251281EB91E054D30FB6F89486
:100A2000DEBF0FBECDBF4DC182E1E3E1F1E0A1EB3E
:100A3000B1E001900D928A95E1F781EB91E042D30C
:100A400040C120E030E0A901C501B40108D6181664
:100A50000CF0BAC020E030E040E050E4C501B40141
:100A60006CD669837A838B839C8329813A814B81FD
:100A70005C8160E070E080E89FE3B6D3B4D6698320
:100A80007A838B839C83A501940179D44CD4062F5F
:100A9000172F8D839E832EEE3CE747E250E46BD404
:100AA0008823DCF52EEE3CE747E250ECED81BE8179
:100AB000602F712F8E2F9B2FD2D5181674F53D8184
:100AC0002E81802F912FA32FB22F8093A10190937D
:100AD000A201A093A301B093A40180939D019093E0
:100AE0009E01A0939F01B093A001BF932D812F93EE
:100AF0001F930F9386E091E09F938F9381EB91E09A
:100B00009F938F930E94251281EB91E0DBD20FB669
:100B1000F894DEBF0FBECDBFD4C069817A818B81CE
:100B20009C819058A50194012AD4FDD3862E972E3E
:100B3000B82EA92E2EEE3CE747E250E41CD48823C1
:100B4000B4F52EEE3CE747E250EC682D792D8B2D65
:100B50009A2D85D518165CF5882D992DAB2DBA2DBB
:100B60008093A1019093A201A093A301B093A4014B
:100B700080939D0190939E01A0939F01B093A0014B
:100B8000AF92BF929F928F9286E091E09F938F9356
:100B900081EB91E09F938F930E94251281EB91E06E
:100BA00091D20FB6F894DEBF0FBECDBF8AC082E1EE
:100BB000E3E1F1E0A1EBB1E001900D928A95E1F75C
:100BC00081EB91E07FD27DC020E030E0A901C5013A
:100BD000B401D1D3811175C080909D0190909E0188
:100BE000A0909F01B090A00120E030E0A901C501D4
:100BF000B401C1D388237CF58BED9FE0A9ECBFEB5A
:100C00008093A1019093A201A093A301B093A401AA
:100C100080939D0190939E01A0939F01B093A001AA
:100C20008FEB8F9389EC8F938FE08F938BED8F9366
:100C300086E091E09F938F9381EB91E09F938F9358
:100C40000E94251281EB91E03DD20FB6F894DEBFF1
:100C50000FBECDBF36C020E030E0A901C501B40110
:100C6000FED4181674F58BED9FE0A9ECBFE38093DA
:100C7000A1019093A201A093A301B093A40180933A
:100C80009D0190939E01A0939F01B093A0018FE3DB
:100C90008F9389EC8F938FE08F938BED8F9386E00A
:100CA00091E09F938F9381EB91E09F938F930E94AC
:100CB000251281EB91E006D20FB6F894DEBF0FBE8D
:100CC000CDBFA3019201C701B60102D34B015C0164
:100CD00020E030E040E251E46091A5017091A6016E
:100CE0008091A7019091A801C5D420E030E040E2B6
:100CF00051E47BD269837A838B839C836091A101C9
:100D00007091A2018091A3019091A40162D520E08D
:100D100030E040E251E4AED42B013C0129813A811C
:100D20004B815C81D5D29B01AC01C501B4015CD281
:100D30006B017C0129E134E046E050E41CD38823B8
:100D4000C4F529E134E046E050ECC701B60187D490
:100D500018167CF529813A814B815C81C301B2016F
:100D60000ED3E1D29B01AC01C501B4013DD2DC013F
:100D7000CB01B0588093AD019093AE01A093AF0129
:100D8000B093B001BF93AF939F938F9385E291E0AF
:100D90009F938F9381EB91E09F938F930E942512F5
:100DA00081EB91E08FD10FB6F894DEBF0FBECDBFBF
:100DB0000CC082E1E3E1F1E0A1EBB1E001900D9222
:100DC0008A95E1F781EB91E07DD126960FB6F894F4
:100DD000DEBF0FBECDBFDF91CF911F910F91FF906E
:100DE000EF90DF90CF90BF90AF909F908F907F90CB
:100DF0006F905F904F900895F7D000D1B3DB789457
:100E000081E0B0DC2FEF33E284EF215030408040AE
:100E1000E1F700C000001092DC011092DB0182E0DB
:100E2000A1DC9FEF23E234EF915020403040E1F706
:100E300000C000001092DC011092DB01E12CF12CCB
:100E40008701A801970162E081E090DB8FEF93E2D8
:100E500024EF815090402040E1F700C00000109244
:100E6000DC011092DB0182E1E3E3F1E0A1EBB1E010
:100E700001900D928A95E1F781EB91E023D13FEF4C
:100E800089EF90E0315080409040E1F700C00000D1
:100E90008091C701882309F4A2C087EC91E011DAA0
:100EA000809181018F93809180018F9385E491E0FF
:100EB0009F938F93C1EBD1E0DF93CF930E942512D4
:100EC000CE0100D180918A018F93809189018F9307
:100ED0008DE491E09F938F93DF93CF930E9425122F
:100EE000CE01F0D0C0918001D0918101BE010D2EC4
:100EF000000C880B990BDED220E030E040E050E49B
:100F00001CD46B017C010091890110918A01B80108
:100F1000012E000C880B990BCDD220E030E040E090
:100F200050E40BD49B01AC01C701B6015ED12DB7D3
:100F30003EB7245F3F4F0FB6F8943EBF0FBE2DBFA4
:100F400020E030E048EC53E416D2882324F5B801C1
:100F5000CE013CDCE090A101F090A2010091A30140
:100F60001091A4012091AD013091AE014091AF01EB
:100F70005091B00162E081E0F9DA3FEF83E294EF53
:100F8000315080409040E1F700C000001092DC0139
:100F90001092DB010CC089E1E5E5F1E0A1EBB1E0E5
:100FA00001900D928A95E1F781EB91E08BD0E7EC0F
:100FB000F1E001900020E9F73197BF01675C7140D3
:100FC00087EC91E004D181E1EEE6F1E0A1EBB1E044
:100FD00001900D928A95E1F781EB91E073D0109228
:100FE000C6011092C5014BCF88E98AB986E080938B
:100FF00095001092900080E189B9089588E9809366
:101000009A0086E080939D001092980080E1809382
:1010100099008AB38D7F8ABB8AB382608ABB0895A8
:101020001F920F920FB60F9211240BB60F922F93AF
:101030003F934F935F938F939F93EF93FF93E7ECCF
:10104000F1E001900020E9F73197E75CF1409F0162
:10105000F093F401E093F3014091C5015091C60172
:1010600041155105A9F41092DE011092DD0109C06D
:10107000FC01E953FE4F108201969093DE018093AC
:10108000DD018091DD019091DE018217930784F3E9
:10109000CA0101969093C6018093C5018CB1FA01F3
:1010A000E953FE4F8083FF91EF919F918F915F9164
:1010B0004F913F912F910F900BBE0F900FBE0F904D
:1010C0001F901895DC01FC0101900020E9F7319791
:1010D000AF01481B590B20E030E00BC0FD01E20FCF
:1010E000F31F9081992341F05D9BFECF9CB92F5F48
:1010F0003F4F2417350794F308955D9BFECF8CB9BD
:1011000008951F920F920FB60F9211240BB60F92F3
:101110002F933F934F935F936F937F938F939F93FF
:10112000AF93BF93EF93FF93EFEDF1E001900020B9
:10113000E9F73197EF5DF1409F01F093F401E093FF
:10114000F3014091DB015091DC0141155105A9F4F7
:101150001092DE011092DD0109C0FC01E152FE4F48
:10116000108201969093DE018093DD018091DD0174
:101170009091DE018217930784F380919C00FA011D
:10118000E152FE4F8083B9DF8091DB019091DC0159
:1011900001969093DC018093DB01FF91EF91BF9169
:1011A000AF919F918F917F916F915F914F913F91FF
:1011B0002F910F900BBE0F900FBE0F901F901895A0
:1011C00090919B0095FFFCCF80939C00089520E0B8
:1011D00030E006C0FC01E20FF31F10822F5F3F4F8B
:1011E00026173707BCF308955058BB27AA270ED0FF
:1011F000FCC1EDD130F0F2D120F031F49F3F11F479
:101200001EF4BDC10EF4E095E7FBB3C1E92FFED19A
:1012100080F3BA17620773078407950718F071F413
:101220009EF516C20EF4E0950B2EBA2FA02D0B01E1
:10123000B90190010C01CA01A0011124FF27591B1B
:1012400099F0593F50F4503E68F11A16F040A22F21
:10125000232F342F4427585FF3CF46953795279592
:10126000A795F0405395C9F77EF41F16BA0B620B91
:10127000730B840BBAF09150A1F0FF0FBB1F661FD8
:10128000771F881FC2F70EC0BA0F621F731F841F1B
:1012900048F4879577956795B795F7959E3F08F041
:1012A000B3CF9395880F08F09927EE0F9795879500
:1012B00008958DD158F080E891E009F49EEF8ED129
:1012C00028F040E851E059F45EEF09C058C1C0C1B0
:1012D000E92FE0789BD168F3092E052AC1F3261780
:1012E00037074807590738F00E2E07F8E02569F050
:1012F000E025E0640AC0EF6307F8009407FADB0119
:10130000B9019D01DC01CA01AD01EF9347D06DD158
:101310000AD05F91552331F02BED3FE049E450FDB9
:1013200049EC63CF0895DF93DD27B92FBF7740E8FD
:101330005FE31616170648075B0710F4D92F93D101
:101340009F938F937F936F938CD2ECE8F0E01AD148
:101350004CD12F913F914F915F9198D1DD2349F06E
:101360009058A2EA2AED3FE049EC5FE3D0785D2790
:101370004DDFDF913AC1D9D008F481E008950CD057
:1013800034C12CD140F023D130F021F45F3F19F06B
:10139000F0C051115EC1F3C039D198F39923C9F35C
:1013A0005523B1F3951B550BBB27AA27621773076B
:1013B000840738F09F5F5F4F220F331F441FAA1F1F
:1013C000A9F333D00E2E3AF0E0E830D091505040DF
:1013D000E695001CCAF729D0FE2F27D0660F771F8D
:1013E000881FBB1F261737074807AB07B0E809F06F
:1013F000BB0B802DBF01FF2793585F4F2AF09E3F04
:10140000510568F0B6C025C15F3FECF3983EDCF3B0
:10141000869577956795B795F7959F5FC9F7880F7C
:10142000911D9695879597F90895E1E0660F771FCE
:10143000881FBB1F621773078407BA0720F0621B5F
:10144000730B840BBA0BEE1F88F7E095089504D058
:101450006894B111FEC00895E1D088F09F5790F0D4
:10146000B92F9927B751A0F0D1F0660F771F881FC9
:10147000991F1AF0BA95C9F712C0B13081F0E8D0BF
:10148000B1E00895E5C0672F782F8827B85F39F05D
:10149000B93FCCF3869577956795B395D9F73EF428
:1014A00090958095709561957F4F8F4F9F4F0895D0
:1014B000E89409C097FB3EF49095809570956195EE
:1014C0007F4F8F4F9F4F9923A9F0F92F96E9BB27A4
:1014D0009395F695879577956795B795F111F8CF20
:1014E000FAF4BB0F11F460FF1BC06F5F7F4F8F4F8B
:1014F0009F4F16C0882311F096E911C0772321F081
:101500009EE8872F762F05C0662371F096E8862F18
:1015100070E060E02AF09A95660F771F881FDAF76F
:10152000880F9695879597F90895990F0008550F9C
:10153000AA0BE0E8FEEF16161706E807F907C0F059
:1015400012161306E407F50798F0621B730B840B61
:10155000950B39F40A2661F0232B242B252B21F43B
:1015600008950A2609F4A140A6958FEF811D811DDB
:10157000089597F99F6780E870E060E008959FEF15
:1015800080EC0895DF93CF931F930F93FF92EF9218
:10159000DF927B018C01689405C0DA2EEF0176D0D2
:1015A000FE01E894A5912591359145915591AEF3B1
:1015B000EF012CDEFE019701A801DA9479F7DF90A4
:1015C000EF90FF900F911F91CF91DF91089500242C
:1015D0000A941616170618060906089500240A9498
:1015E00012161306140605060895092E0394000C1E
:1015F00011F4882352F0BB0F40F4BF2B11F460FFAD
:1016000004C06F5F7F4F8F4F9F4F089557FD9058D5
:10161000440F551F59F05F3F71F04795880F97FBB6
:10162000991F61F09F3F79F0879508951216130670
:101630001406551FF2CF4695F1DF08C0161617069F
:101640001806991FF1CF86957105610508940895D4
:10165000E894BB2766277727CB0197F9089565DFC4
:1016600008F48FEF08959B01AC0160E070E080E822
:101670009FE385CE0BD0B9CFAADF28F0AFDF18F0FB
:10168000952309F076CF7BCF1124E3CFBFDFA0F302
:10169000959FD1F3950F50E0551F629FF001729F07
:1016A000BB27F00DB11D639FAA27F00DB11DAA1F26
:1016B000649F6627B00DA11D661F829F2227B00D73
:1016C000A11D621F739FB00DA11D621F839FA00DFE
:1016D000611D221F749F3327A00D611D231F849F4E
:1016E000600D211D822F762F6A2F11249F575040A5
:1016F0008AF0E1F088234AF0EE0FFF1FBB1F661F40
:10170000771F881F91505040A9F79E3F510570F0F8
:1017100030CF9FCF5F3FECF3983EDCF38695779513
:101720006795B795F795E7959F5FC1F7FE2B880FF3
:10173000911D9695879597F90895FA01EE0FFF1F71
:1017400030962105310599F16115710561F48038F4
:10175000BFE39B0749F168949038810561F08038B8
:10176000BFEF9B0741F0992342F5FF3FE1053105AB
:10177000210511F1E8940894E795D901AA2329F4E9
:10178000AB2FBE2FF85FD0F310C0FF5F70F4A695AB
:10179000E0F7F73950F019F0FF3A38F49F779F934C
:1017A0000CD00F9007FC905808953EF0E8CE60E012
:1017B00070E080E89FE308954FE79F775F934F9332
:1017C0003F932F930BD12F913F914F915F9152DF18
:1017D00050C09F9390D00F9007FCEE5FB3C011F400
:1017E0000EF4CDCE72C01ADFD0F39923D9F3CEF325
:1017F0009F57550B87FF77D00024A0E640EA900161
:1018000080585695979528F4805C660F771F881F3F
:1018100020F026173707480730F4621B730B840B40
:10182000202931294A2BA695179407942025312584
:101830004A2758F7660F771F881F20F026173707AB
:10184000480730F4620B730B840B200D311D411DD2
:10185000A09581F7B901842F9158880F96958795A7
:1018600008959B01AC0106CF19F40EF082CEF0CEA4
:1018700086CED4DEC8F39638C0F707F80F92E89406
:101880002BE33AEA48EB5FE703DF0F920F920F92E8
:101890004DB75EB70F92E2D0E9EBF0E073DE4F9107
:1018A0005F91EF91FF91E595EE1FFF1F49F0FE5705
:1018B000E0684427EE0F441FFA95E1F74195550B78
:1018C00054D00F9007FECFCE08959F3F31F0915036
:1018D00020F4879577956795B795880F911D969514
:1018E000879597F9089591505040660F771F881F8C
:1018F000D2F7089544CE92DEE8F3E894E0E0BB2707
:101900009F57F0F02AED3FE049EC06C0EE0FBB0F09
:10191000661F771F881F28F0B23A62077307840793
:1019200028F0B25A620B730B840BE3959A9572F709
:10193000803830F49A95BB0F661F771F881FD2F747
:101940009048C5CFEF93E0FF06C0A2EA2AED3FE042
:1019500049EC5FEB5BDC49DE0F90039401FC90588F
:10196000E1EEF0E0AEC005CEB0CF58DEE8F399234B
:10197000D9F3940F511DBBF39150504094F059F09E
:10198000882332F0660F771F881F91505040C1F7AF
:101990009E3F510544F7880F911D9695879597F9BD
:1019A00008955F3FACF0983E9CF0BB2786957795F5
:1019B0006795B79508F4B1609395C1F7BB0F58F7D9
:1019C00011F460FFE8CF6F5F7F4F8F4F9F4FE3CFE2
:1019D00040CE0EF07ACFD3CD6894CBCD1FDEC8F3C6
:1019E0009923D1F3C6F3DF93CF931F930F93FF9205
:1019F000C92FDD2788232AF02197660F771F881FBC
:101A0000DAF720E030E040E85FEB9FE3883920F030
:101A1000803E30F021968F77E8DBEFEFF0E003C0F7
:101A2000E4DBECE2F1E0AEDD8B01BE01EC01FB2E6C
:101A30006F5771097595771F880B990B3BDD28E16E
:101A400032E741E35FE322DEAF2D9801AE01FF9064
:101A50000F911F91CF91DF91D9DBC7CDFA01DC0146
:101A6000AA0FBB1F9B01AC01BF5728F422273327C5
:101A7000442750781FC0B75188F4AB2F00244695F7
:101A800037952795011CA395D2F3002069F0220F0A
:101A9000331F441FB395DAF30DD0A6CB6130710527
:101AA000A0E88A07B94630F49B01AC016627772786
:101AB00088279078309621F02083318342835383A6
:101AC00008959F938F937F936F93FF93EF939B0161
:101AD000AC01D0DDEF91FF9155DD2F913F914F91FA
:101AE0005F91C8CD2F923F924F925F926F927F92FB
:101AF0008F929F92AF92BF92CF92DF92EF92FF921E
:101B00000F931F93CF93DF93CDB7DEB760970FB6D8
:101B1000F894DEBF0FBECDBF7C011B016A01FC0142
:101B200017821682838181FF2AC39E012F5F3F4F58
:101B30003901F7019381F10193FD859193FF819123
:101B40001F01882309F417C3853239F493FD859169
:101B500093FF81911F01853231F4B70190E039D4B0
:101B600056016501E6CF10E0512C912CFFE1F915EB
:101B7000D8F08B3279F038F4803279F08332A1F4E6
:101B8000F92DF0612EC08D3261F0803369F4292D7A
:101B900021602DC0392D3260932E892D8460982EBE
:101BA0002AC0E92DE86015C097FC2DC020ED280F54
:101BB0002A3088F496FE06C03AE0139F200D1124C7
:101BC000122F19C08AE0589E200D1124522EE92DA3
:101BD000E0629E2E10C08E3231F496FCCCC2F92DFC
:101BE000F0649F2E08C08C3621F4292D2068922E97
:101BF00002C0883641F4F10193FD859193FF8191F4
:101C00001F018111B3CF9BEB980F933020F4992DD6
:101C10009061805E07C09BE9980F933008F059C12E
:101C2000992D9F7E96FF16E09F73992E853619F4A5
:101C30009064992E08C0863621F4392F3068932E8F
:101C400002C01111115097FE07C01C3350F44424F8
:101C50004394410E27E00BC0183038F027E017E01E
:101C600005C027E09CE3492E02C0212F412C5601DC
:101C700084E0A80EB11CF60160817181828193819C
:101C8000042DA301B8D26C01F981FC87F0FF02C0DA
:101C9000F3FF06C091FC06C092FE06C000E205C03C
:101CA0000DE203C00BE201C000E08C858C7019F0DE
:101CB000011143C280C297FE10C04C0CFC85F4FF9A
:101CC00004C08A81813309F44A94141474F528E01D
:101CD000241578F588E0482E2CC096FC2AC0812F68
:101CE00090E08C159D059CF03CEFC3163FEFD306AA
:101CF00074F0892D8068982E0AC0E2E0F0E0EC0FC5
:101D0000FD1FE10FF11D8081803319F41150111175
:101D1000F4CF97FE0EC044244394410E812F90E0EF
:101D2000C816D9062CF41C1904C04424439401C0DD
:101D300010E097FE06C01C141D0434F4C601019681
:101D400005C085E090E002C081E090E001110196BD
:101D5000112331F0212F30E02F5F3F4F820F931F6F
:101D6000252D30E08217930714F4581A01C0512C26
:101D7000892D897041F4552031F0B70180E290E05F
:101D800028D35A94F8CF002321F0B701802F90E098
:101D900020D393FC08C0552031F0B70180E390E0D8
:101DA00018D35A94F8CF97FE4AC04601D7FE02C016
:101DB000812C912CC60188199909F301E80FF91FAC
:101DC000FE87ED87960124193109388B2F87012F63
:101DD00010E01195019511093FEF8316930621F448
:101DE000B7018EE290E0F5D2C814D9044CF08F858B
:101DF00098898815990524F4ED85FE85818101C0B7
:101E000080E3F1E08F1A91082D853E852F5F3F4FCB
:101E10003E872D878016910624F0B70190E0D9D235
:101E2000DBCFC814D90441F49A81963320F495335A
:101E300019F43C8534FF81E3B70190E048C08A8102
:101E4000813319F09C859F7E9C87B70190E0C1D2B9
:101E5000111105C094FC16C085E690E015C0B701CD
:101E60008EE290E0B6D21E5F82E001E0080FF3013F
:101E7000E80FF11D8081B70190E0ABD2802F0113F4
:101E8000F4CFE8CF85E490E0B701A3D2D7FC06C039
:101E9000C114D10441F4EC85E4FF05C0D194C19490
:101EA000D1088DE201C08BE2B70190E092D280E3CD
:101EB0002AE0C216D1042CF08F5FFAE0CF1AD108C5
:101EC000F7CFB70190E085D2B701C601C09681D2A5
:101ED00049C1833631F0833779F0833509F052C038
:101EE0001FC0560132E0A30EB11CF6018081898328
:101EF00001E010E0630111C05601F2E0AF0EB11C29
:101F0000F601C080D18096FE03C0612F70E002C050
:101F10006FEF7FEFC60152D28C01F92DFF7713C00E
:101F2000560122E0A20EB11CF601C080D18096FEBF
:101F300003C0612F70E002C06FEF7FEFC60133D2A4
:101F40008C01F92DF0689F2EF3FD18C0852D90E0CF
:101F50000817190798F4B70180E290E03AD25A9432
:101F6000F5CFF60197FC859197FE81916F01B7013E
:101F700090E02FD251105A9401501109011511050A
:101F800081F7F0C0843611F0893659F5560197FE75
:101F900009C024E0A20EB11CF6016081718182812A
:101FA00093810AC0F2E0AF0EB11CF601608171812D
:101FB000072E000C880B990BF92DFF769F2E97FFAB
:101FC00009C090958095709561957F4F8F4F9F4F79
:101FD000F0689F2E2AE030E0A30165D2C82EC61813
:101FE0003EC0092D853721F40F7E2AE030E01DC068
:101FF000097F8F3691F018F4883559F0BCC08037CE
:1020000019F0883711F0B7C0006104FF09C00460FF
:1020100007C094FE08C0066006C028E030E005C096
:1020200020E130E002C020E132E0560107FF09C0A4
:1020300084E0A80EB11CF6016081718182819381D8
:1020400008C0F2E0AF0EB11CF6016081718180E042
:1020500090E0A30128D2C82EC6180F77902E96FEC6
:102060000BC0092D0E7FC11650F494FE0AC092FCDD
:1020700008C0092D0E7E05C0DC2C092D03C0DC2C08
:1020800001C0D12E04FF0DC0FE01EC0DF11D8081B9
:10209000803311F4097E09C002FF06C0D394D394A3
:1020A00004C0802F867809F0D39403FD10C000FF90
:1020B00006C01C2DD51478F4150D1D190CC0D514AF
:1020C00050F4B70180E290E084D1D394F8CFD514D6
:1020D00010F45D1801C0512C04FF0FC0B70180E35C
:1020E00090E077D102FF16C001FD03C088E790E0C1
:1020F00002C088E590E0B7010CC0802F867851F0CF
:1021000001FF02C08BE201C080E207FD8DE2B70152
:1021100090E05FD1C11630F4B70180E390E059D16F
:102120001150F8CFCA94F301EC0DF11D8081B70175
:1021300090E04FD1C110F6CF15C0F4E0F51550F581
:1021400084E0581A93FE1EC0011125C02C8523FF80
:1021500027C00AE511E0392D3071932EF8018491E2
:10216000811121C0552009F4FCCCB70180E290E038
:1021700030D15A94F7CFF7018681978123C08FEF32
:102180009FEF20C0B70180E290E023D15A94511014
:10219000F9CFDACF512CB701802F90E01AD1D6CFEA
:1021A0000EE511E0D8CF91108052B70190E011D127
:1021B0000F5F1F4FD3CF23E0251510F483E0C1CF6D
:1021C000512CC4CF60960FB6F894DEBF0FBECDBFC2
:1021D000DF91CF911F910F91FF90EF90DF90CF9003
:1021E000BF90AF909F908F907F906F905F904F9037
:1021F0003F902F900895283008F027E03327DA0128
:10220000990F311D87FD916000966105710539F4C4
:1022100032602E5F3D9330E32A95E1F708959F3FAA
:1022200030F080387105610509F03C5F3C5F3D93FB
:10223000913008F08068911DDF93CF931F930F9327
:10224000FF92EF92192F987F9695E92F9695969584
:10225000E90FFF27E454FE4F99273327EE24FF248C
:10226000A701E70105900894079428F4360FE71EAC
:10227000F81E491F511D660F771F881F991F06946E
:10228000A1F70590079428F4E70EF81E491F561F82
:10229000C11D770F881F991F661F0694A1F705902F
:1022A000079428F4F80E491F561FC71FD11D880F29
:1022B000991F661F771F0694A1F70590079420F4D5
:1022C000490F561FC71FD81F990F661F771F881FFA
:1022D0000694A9F784911095177041F0D695C7958B
:1022E00057954795F794E7941A95C1F7E2E6F1E020
:1022F00068941590159135916591959105907FE2BF
:102300007395E118F10A430B560BC90BD009C0F7BE
:10231000E10CF11E431F561FC91FD01D7EF4703300
:1023200011F48A95E6CFE894015030F0080F0AF4D2
:102330000027021708F4202F2395022F7A3328F064
:1023400079E37D932A95E9F710C07D932A9589F664
:10235000069497956795379517951794E118F10AA4
:10236000430B560BC90BD00998F023957E917395BA
:102370007A3308F070E37C932013B8F77E91706194
:102380007D9330F0839571E37D9370E32A95E1F7B7
:102390001124EF90FF900F911F91CF91DF9199271A
:1023A00087FD90950895FC010590615070400110E3
:1023B000D8F7809590958E0F9F1F0895FC0161506E
:1023C000704001900110D8F7809590958E0F9F1F57
:1023D00008950F931F93CF93DF93FB01238121FD7A
:1023E00003C08FEF9FEF2CC022FF16C0468157819C
:1023F000248135814217530744F4A081B1819D01A6
:102400002F5F3F4F318320838C93268137812F5F4D
:102410003F4F3783268314C08B01EC01FB010084FE
:10242000F185E02D0995892BE1F6D80116968D915D
:102430009C911797019617969C938E931697CE01B1
:10244000DF91CF911F910F9108950F931F93CF9319
:10245000DF93CDB7DEB72E970FB6F894DEBF0FBE71
:10246000CDBF0D891E8986E08C831A8309838FEF87
:102470009FE79E838D83AE01475E5F4F6F89788DA6
:10248000CE0101962FDBEF81F885E00FF11F10825E
:102490002E960FB6F894DEBF0FBECDBFDF91CF9161
:1024A0001F910F910895FA01AA27283051F1203188
:1024B00081F1E8946F936E7F6E5F7F4F8F4F9F4FD8
:1024C000AF4FB1E03ED0B4E03CD0670F781F891F1A
:1024D0009A1FA11D680F791F8A1F911DA11D6A0FE8
:1024E000711D811D911DA11D20D009F468943F919B
:1024F0002AE0269F11243019305D3193DEF6CF019A
:102500000895462F4770405D4193B3E00FD0C9F75F
:10251000F6CF462F4F70405D4A3318F0495D31FDCC
:102520004052419302D0A9F7EACFB4E0A69597951F
:10253000879577956795BA95C9F7009761057105F5
:1025400008959B01AC010A2E06945795479537953F
:102550002795BA95C9F7620F731F841F951FA01D99
:062560000895F894FFCF7E
:102566004641494C0A00746865746132203D202555
:10257600660A00556E617661696C61626C65204120
:102586006E676C6500746865746131203D20256C4A
:10259600660A0073656E6420636F6F7264696E61AC
:1025A6007465730A0058203A2025640A0059203AB7
:1025B6002025640A00556E617661696C61626C65FE
:1025C60020636F6F7264696E617465730A00736568
:1025D6006E6420436F6F7264696E6174650A0000F1
:00000001FF
